:100000000C94FE000C941F010C941F010C941F0112
:100010000C941F010C941F010C941F010C941F01E0
:100020000C941F010C941F010C941F010C941F01D0
:100030000C941F010C941F010C941F010C941F01C0
:100040000C941F010C941F010C941F010C941F01B0
:100050000C941F010C941F010C941F010C941F01A0
:100060000C941F010C941F010C941F010C941F0190
:100070000C941F010C941F010C941F010C941F0180
:100080000C941F010C941F010C941F010C941F0170
:100090000C941F010C941F010C941F010C941F0160
:1000A0000C941F010C941F010C941F010C941F0150
:1000B0000C941F010C941F010C941F010C9451040B
:1000C0000C941F010C941F010C941F010C941F0130
:1000D0000C941F010C941F010C941F010C941F0120
:1000E0000C941F010C941F010C941F010C941F0110
:1000F0000C941F010C941F010C941F010C941F0100
:100100000C9465040C949D040C941F010C941F0125
:100110000C941F010C941F010C941F010C941F01DF
:100120000C941F010C941F010C941F010C941F01CF
:100130000C941F010C941F010C941F010C941F01BF
:100140000C941F010C941F010C941F010C941F01AF
:100150000C941F010C941F010C941F010C941F019F
:100160000C941F010C941F010C941F010C941F018F
:100170000C941F010C941F010C941F010C941F017F
:100180000C941F010C941F010C941F010C941F016F
:100190000C941F010C941F010C941F010C941F015F
:1001A0000C941F010C941F010C941F010C941F014F
:1001B0000C941F010C941F010C941F010C941F013F
:1001C0000C941F010C941F010C941F010C941F012F
:1001D0000C941F010C941F010C941F010C94130527
:1001E0000C943B050C941F010C941F010C941F01EF
:1001F0000C941F010C941F010C941F0111241FBEAD
:10020000CFEFCDBFDFE5DEBF00E00CBF10E2A0E026
:10021000B0E2EEEEFCE000E00BBF02C007900D92F2
:10022000A030B107D9F728E4A0E0B0E201C01D92E8
:10023000AC30B207E1F70E94A7040C9475060C9449
:10024000000020E030E004C02091A10A207830E0D6
:1002500021153105C9F38091A00A06C0E0EAFAE051
:100260002181207830E09081232BC1F7089520E090
:1002700030E004C02091A10A207230E0232BD1F39A
:100280008093A00A80E090E004C08091A10A80726F
:1002900090E0892BD1F30895E0E4F9E010A211A2D7
:1002A00085E080830895E0E4F9E0108210A211A2B5
:1002B0000895CF92DF92EF92FF920F931F93CF9307
:1002C000DF93CDB7DEB7E097CDBFDEBF81E080938F
:1002D0000402E0E4F2E0848392E0908398E291A348
:1002E000808340E050E0BA011BC0E0E4F2E080818E
:1002F0008C6180838091460280FFFCCFE0E4F2E0D5
:1003000084A195A1DA01AA0FBB1FAF51BF4D8D93F8
:100310009C9386818F6086834F5F5F4F6F4F7F4FC7
:10032000483823E1520761057105F8F2C12CD12C40
:10033000760112C08601000F111F0F511F4DD80109
:100340008C910E943701F80181810E943701FFEFF3
:10035000CF1ADF0AEF0AFF0A28E8C21623E1D20605
:10036000E104F10438F3A0E0B2E083E014968C934A
:100370001497E0E4F2E0848382E08C93808340E091
:1003800080E090E0DC0151E02DC0FC01EE0FFF1F8A
:10039000EF51FF4D20813181293E63E03607C0F0E7
:1003A0005531B0F0E42FF0E0EE0FFF1FEE0FFF1F0E
:1003B00021E030E02C0F3D1FE20FF31F808391837B
:1003C000A283B38320E1209385064F5F50E007C0EE
:1003D000283E334020F45F5F20E12093860601969B
:1003E000A11DB11D8838E3E19E07A105B10510F4F8
:1003F0004B3058F24B3009F052C029C0FC01329604
:10040000EE0FFF1FEE0FFF1F41E050E04C0F5D1F8E
:10041000E40FF51F40815181628173810196FC01D7
:10042000EE0FFF1FEE0FFF1FA1E0B0E0AC0FBD1FEE
:10043000EA0FFB1FC080D180E280F3804C195D0978
:100440006E097F09040F151F261F371F05C080E0A6
:1004500090E000E010E09801893091057CF2C9013C
:10046000B8010E946B0520E030E040E05EE30E94AE
:10047000F905262F462F572F682F792F4DA75EA7F6
:100480006FA778AB822F0E9437018EA50E9437019B
:100490008FA50E94370188A90E9437010CC08FEFF9
:1004A0000E9437018FEF0E9437018FEF0E943701C2
:1004B0008FEF0E943701E096CDBFDEBFDF91CF9175
:1004C0001F910F91FF90EF90DF90CF9008950E94C1
:1004D0004C0180916009909161098035934CC8F37B
:1004E0000E9453010895CF93DF93E0E0F2E083E0B0
:1004F0008483A0E4B2E014968C93149780E281A3E5
:1005000088E281A78081826080838C9182608C9355
:100510008081816080838C9181608C9380818C60EC
:1005200080838C9184608C9302C00E9467029091BA
:1005300006028091460281708923B9F3E0E0F2E07F
:1005400084A195A1C6E0D8E48883998384A595A564
:100550008A839B83A0E4B2E094968D919C919597B9
:100560008C839D8386818360868316968C911697F3
:10057000816016968C93DF91CF9108950F931F930E
:10058000CF93DF93CDB7DEB76497CDBFDEBF84E0F6
:10059000809325060E94670288E0809326060E94C9
:1005A000670200E010E015C00E94730280910648C7
:1005B00090910748F801EE0FFF1F21E030E02C0F6B
:1005C0003D1FE20FF31F808391830E9467020F5F3C
:1005D0001F4F0A30110544F380E090E020E030E046
:1005E0000EC0FC01EE0FFF1F41E050E04C0F5D1FFD
:1005F000E40FF51F40815181240F351F01968A3089
:1006000091057CF3ADECBCEC0E946606969587954F
:1006100096958795969587956496CDBFDEBFDF91B9
:10062000CF911F910F910895CF93DF930E94BE0247
:10063000EC010E943701CC278D2F0E943701DF91FA
:10064000CF9108950F931F93CF93DF93CDB7DEB76C
:100650006497CDBFDEBF88E0809325060E946702C5
:1006600084E0809326060E94670200E010E015C037
:100670000E9473028091084890910948F801EE0F9A
:10068000FF1F21E030E02C0F3D1FE20FF31F80839E
:1006900091830E9467020F5F1F4F0A30110544F3D8
:1006A00080E090E020E030E00EC0FC01EE0FFF1F84
:1006B00041E050E04C0F5D1FE40FF51F4081518178
:1006C000240F351F01968A3091057CF3ADECBCEC0C
:1006D0000E94660696958795969587959695879537
:1006E0006496CDBFDEBFDF91CF911F910F9108952A
:1006F000CF93DF930E942203EC010E943701CC27A5
:100700008D2F0E943701DF91CF910895E6E2F6E048
:1007100084E0808388E08083089584E0809382066B
:1007200088E08093810680938506E0EAFAE087817D
:10073000806D8783868183688683858183608583D6
:100740008481886184830895E0E5F0E0808182609F
:1007500080838091510081FFFCCF88ED84BFE0E46D
:10076000F0E081E08083118211820895E0E0FAE0F8
:100770001182108281E086838FEF86A387A308957C
:10078000E0E4F9E0118210828FEF9FEF86A397A338
:100790000895E2E0F6E031E0308322E0208384E057
:1007A000808388E0808390E1908380E28083E2E22E
:1007B000F6E0308320839083808380E48083A0E010
:1007C000B2E083E014968C931497E0E4F2E0848323
:1007D00012968C91129712968C9312978281828333
:1007E00012968C911297806112968C931297828147
:1007F0008061828390968C919097816090968C9383
:10080000909798968C919897816098968C939897EA
:10081000D0968C91D0978160D0968C93D097D896B3
:100820008C91D8978160D8968C93D89780A181605D
:1008300080A380A5816080A780A9816080AB80AD06
:10084000816080AF91968C919197876091968C93FF
:10085000919799968C919997876099968C9399978F
:10086000D1968C91D1978760D1968C93D197D99658
:100870008C91D9978760D9968C9381A1876081A349
:1008800081A5876081A781A9876081AB81AD8760E1
:1008900081AF0895E1E2F6E084E0808388E0808320
:1008A00008951F920F920FB60F9211248F939F936A
:1008B00081E090E080930220909303209F918F919C
:1008C0000F900FBE0F901F9018951F920F920FB6AA
:1008D0000F9211240BB60F922F933F934F938F9348
:1008E0009F93EF93FF932091002030910120E0E04F
:1008F000FAE081A190E00196982F882740A1840F0B
:10090000911D0196F901EE0FFF1FED52FF4D8083FF
:1009100091832F5F3F4F2093002030930120FF9160
:10092000EF919F918F914F913F912F910F900BBE1F
:100930000F900FBE0F901F9018951F920F920FB639
:100940000F9211240F900FBE0F901F9018950E94C8
:10095000A4030E94B6030E94C0030E94C9030E9420
:100960008D030E944A047894E0EAF0E0828181607D
:10097000828380E8809301068093050680E180935E
:1009800081060E9421018E3199F028F48A3051F0BD
:10099000843159F041C08233C9F18C33D1F18832AE
:1009A000D9F52DC00E941403ECCF0E947803E9CF43
:1009B00081E00E9437010E94670282E00E943701B5
:1009C0000E94670283E00E9437010E94670284E070
:1009D0000E9437010E94670285E00E9437010E9451
:1009E000670286E00E9437010E94670287E00E944A
:1009F00037010E94670288E00E943701C2CF8FEF63
:100A00000E9437018FEF0E943701BBCF0E9459012E
:100A1000B8CF0E948603B5CF8FEF0E9437018FEFCA
:100A20000E943701AECF1F920F920FB60F92112482
:100A30000BB60F928F939F93EF93FF938091692052
:100A4000E82FF0E09091A00BEC5FFF4D90838F5F5B
:100A5000843608F080E090916820891380936920A3
:100A6000FF91EF919F918F910F900BBE0F900FBE52
:100A70000F901F9018951F920F920FB60F9211248E
:100A80000BB60F922F938F939F93EF93FF938091C9
:100A9000CE209091CF20891759F0E82FF0E0E65949
:100AA000FF4D20812093A00B8F5F843608F080E0FB
:100AB000891303C090E29093A30B8093CE20FF9103
:100AC000EF919F918F912F910F900BBE0F900FBEC2
:100AD0000F901F901895E89409C097FB3EF49095ED
:100AE0008095709561957F4F8F4F9F4F9923A9F007
:100AF000F92F96E9BB279395F69587957795679596
:100B0000B795F111F8CFFAF4BB0F11F460FF1BC0D9
:100B10006F5F7F4F8F4F9F4F16C0882311F096E96C
:100B200011C0772321F09EE8872F762F05C066231A
:100B300071F096E8862F70E060E02AF09A95660FD3
:100B4000771F881FDAF7880F9695879597F908958C
:100B500097F99F6780E870E060E008959FEF80EC70
:100B6000089500240A941616170618060906089513
:100B700000240A9412161306140605060895092E79
:100B80000394000C11F4882352F0BB0F40F4BF2BE8
:100B900011F460FF04C06F5F7F4F8F4F9F4F089528
:100BA00057FD9058440F551F59F05F3F71F047951E
:100BB000880F97FB991F61F09F3F79F08795089503
:100BC000121613061406551FF2CF4695F1DF08C022
:100BD000161617061806991FF1CF8695710561053F
:100BE00008940895E894BB2766277727CB0197F9E7
:100BF00008950E940C060C94BF050E94B10538F0C0
:100C00000E94B80520F0952311F00C94A8050C94CF
:100C1000AE0511240C94F3050E94D00570F3959F46
:100C2000C1F3950F50E0551F629FF001729FBB27E3
:100C3000F00DB11D639FAA27F00DB11DAA1F649F7F
:100C40006627B00DA11D661F829F2227B00DA11D32
:100C5000621F739FB00DA11D621F839FA00D611DB8
:100C6000221F749F3327A00D611D231F849F600DD9
:100C7000211D822F762F6A2F11249F5750409AF002
:100C8000F1F088234AF0EE0FFF1FBB1F661F771F8E
:100C9000881F91505040A9F79E3F510580F00C9459
:100CA000A8050C94F3055F3FE4F3983ED4F38695D2
:100CB00077956795B795F795E7959F5FC1F7FE2BF9
:100CC000880F911D9695879597F90895A29FB00179
:100CD000B39FC001A39F700D811D1124911DB29F70
:0E0CE000700D811D1124911D0895F894FFCF11
:00000001FF
