:100000000C9413010C9427010C9427010C942701E4
:100010000C9427010C9427010C9427010C942701C0
:100020000C9427010C9427010C9427010C942701B0
:100030000C9427010C9427010C9427010C942701A0
:100040000C9427010C9427010C9427010C94270190
:100050000C9427010C9427010C9427010C94270180
:100060000C9427010C9427010C9427010C94270170
:100070000C9427010C9427010C9427010C94270160
:100080000C9427010C9427010C9427010C94270150
:100090000C9427010C9427010C9427010C94270140
:1000A0000C9427010C9427010C9427010C94270130
:1000B0000C9427010C9427010C9427010C949B05A8
:1000C0000C9427010C9427010C9427010C94270110
:1000D0000C9427010C9427010C9427010C94270100
:1000E0000C9427010C9427010C9427010C942701F0
:1000F0000C9427010C9427010C9427010C942701E0
:100100000C94AF050C94E7050C9427010C9427017F
:100110000C9427010C9427010C9427010C942701BF
:100120000C9427010C9427010C9427010C942701AF
:100130000C9427010C9427010C9427010C9427019F
:100140000C9427010C9427010C9427010C9427018F
:100150000C9427010C9427010C9427010C9427017F
:100160000C9427010C9427010C9427010C9427016F
:100170000C9427010C9427010C9427010C9427015F
:100180000C9427010C9427010C9427010C9427014F
:100190000C9427010C9427010C9427010C9427013F
:1001A0000C9427010C9427010C9427010C9427012F
:1001B0000C9427010C9427010C9427010C9427011F
:1001C0000C9427010C9427010C9427010C9427010F
:1001D0000C9427010C9427010C9427010C942701FF
:1001E0000C9427010C9427010C9427010C942701EF
:1001F0000C9427010C9427010C94270118061B0668
:100200001E062106240627062A060C942A060C94AC
:100210001B060C9427060C9421060C9418060C94CB
:100220001E060C94240611241FBECFEFCDBFDFE5C0
:10023000DEBF00E00CBF27E4A0E0B0E201C01D92E9
:10024000AE34B207E1F70E94F1050C940F080C944C
:10025000000020E030E004C02091A10A207830E0C6
:1002600021153105C9F38091A00A06C0E0EAFAE041
:100270002181207830E09081232BC1F7089520E080
:1002800030E004C02091A10A207230E0232BD1F38A
:100290008093A00A80E090E004C08091A10A80725F
:1002A00090E0892BD1F30895E0E4F9E010A211A2C7
:1002B00085E080830895E0E4F9E0108210A211A2A5
:1002C00008950F931F93CF93DF93E0E0F2E083E074
:1002D0008483A0E4B2E014968C93149782E0808328
:1002E0008C9388E081A711A290E191AB98E191AF46
:1002F00091961C92919799968C93999780E2D196BA
:100300008C93D19781E080838C938081806C8083F3
:100310008C9180688C9380818C6380838C918C61BC
:100320008C9386818F7016969C919F7006C08091E9
:1003300006028F70909146029F708F3011F09730B7
:10034000B1F700E012E0F80164A175A180E090E04F
:100350000E940C07C7E2D7E4688379838A839B8372
:10036000F80164A575A580E090E00E940C076C83FD
:100370007D838E839F83F80164A975A980E090E056
:100380000E940C07688779878A879B87F80164AD8C
:1003900075AD80E090E00E940C076C877D878E87AA
:1003A0009F8700E412E0F80164A175A180E090E06D
:1003B0000E940C07688B798B8A8B9B8BF80164A554
:1003C00075A580E090E00E940C076C8B7D8B8E8B76
:1003D0009F8BF80164A975A980E090E00E940C074A
:1003E000688F798F8A8F9B8F10E029C0C12FD0E052
:1003F000CC0FDD1FCC0FDD1FC95DD84B6881798123
:100400008A819B8120E030E040E450E40E949A071A
:1004100020E030E040E850E40E949A0720E030EF0E
:100420004FE755E40E949A062AE939E949E95EE373
:100430000E942D06688379838A839B831F5F18300F
:10044000A8F2A0E0B2E016968C9116978F601696EF
:100450008C931697E0E4F2E086818F60868381E0DA
:1004600014968C931497848382E08C938083DF911D
:10047000CF911F910F9108950E94540180916009BE
:10048000909161098035934CC8F30E945B010895F7
:10049000CF93DF93E0E0F2E083E08483A0E4B2E076
:1004A00014968C93149780E281A388E281A78081BF
:1004B000826080838C9182608C9380818160808354
:1004C0008C9181608C9380818C6080838C9184601E
:1004D0008C9302C00E943C029091060280914602D9
:1004E00081708923B9F3E0E0F2E084A195A1C8E42A
:1004F000D7E48883998384A595A58A839B83A0E408
:10050000B2E094968D919C9195978C839D83868182
:100510008360868316968C911697816016968C93CD
:10052000DF91CF910895E6E2F6E084E0808388E0F1
:1005300080830895CF93DF9300D01F92CDB7DEB7AD
:1005400069837A838B839C83862F0E943F018A81F3
:100550000E943F018B810E943F018C810E943F01DC
:100560002496CDBFDEBFDF91CF910895CF92DF9269
:10057000EF92FF920F931F93CF93DF93CDB7DEB728
:10058000E097CDBFDEBF81E080930402E0E4F2E0BB
:10059000848392E0908398E291A3808340E050E0CE
:1005A000BA011BC0E0E4F2E080818C61808380911D
:1005B000460280FFFCCFE0E4F2E084A195A1DA01DD
:1005C000AA0FBB1FAB5EBF4D8D939C9386818F603E
:1005D00086834F5F5F4F6F4F7F4F483823E152074D
:1005E00061057105F8F2A0E0B2E083E014968C9307
:1005F0001497E0E4F2E0848382E08C93808340E00F
:1006000080E090E0DC0151E02DC0FC01EE0FFF1F07
:10061000EB5EFF4D20813181293E63E03607C0F05B
:100620005531B0F0E42FF0E0EE0FFF1FEE0FFF1F8B
:1006300021E030E02C0F3D1FE20FF31F80839183F8
:10064000A283B38320E1209385064F5F50E007C06B
:10065000283E334020F45F5F20E120938606019618
:10066000A11DB11D883823E19207A105B10510F441
:100670004B3058F24B3009F052C029C0FC01329681
:10068000EE0FFF1FEE0FFF1F41E050E04C0F5D1F0C
:10069000E40FF51F40815181628173810196FC0155
:1006A000EE0FFF1FEE0FFF1FA1E0B0E0AC0FBD1F6C
:1006B000EA0FFB1FC080D180E280F3804C195D09F6
:1006C0006E097F09040F151F261F371F05C080E024
:1006D00090E000E010E09801893091057CF2C901BA
:1006E000B8010E940C0720E030E040E05EE30E9489
:1006F0009A07262F462F572F682F792F4DA75EA7D1
:100700006FA778AB822F0E943F018EA50E943F0108
:100710008FA50E943F0188A90E943F0106C068E59D
:100720007FEF8FE79FE30E949A02E096CDBFDEBF86
:10073000DF91CF911F910F91FF90EF90DF90CF90BD
:100740000895EF92FF920F931F93CF93DF93CDB74E
:10075000DEB7A897CDBFDEBF84E0809325060E9458
:100760003C0288E0809326060E943C0200E010E0F4
:1007700020C00E9448026091484770914947780123
:10078000EE0CFF1CEE0CFF1C21E030E02C0F3D1F97
:10079000E20EF31E072E000C880B990B0E940E0729
:1007A000F70160837183828393830E943C020F5F11
:1007B0001F4F0A301105ECF200E010E060E070E03D
:1007C000CB0113C0F801EE0FFF1FEE0FFF1F21E05A
:1007D00030E02C0F3D1FE20FF31F20813181428159
:1007E00053810E942E060F5F1F4F0A30110554F3EC
:1007F00020E030E040E251E40E949A0620E030E040
:1008000040E450E40E949A072AE939E949E95EE3A5
:100810000E942D0620E030E045E253E40E949A0653
:1008200020E034E244E759E40E949A070E949A02C9
:10083000A896CDBFDEBFDF91CF911F910F91FF90A2
:10084000EF900895CF93DF930E946101C0E0D0E064
:100850000EC0FE01EE0FFF1FEE0FFF1FE95DF84B0C
:1008600060817181828193810E949A022196C730B2
:10087000D1057CF3DF91CF910895EF92FF920F9312
:100880001F93CF93DF93CDB7DEB7A897CDBFDEBF61
:1008900088E0809325060E943C0284E0809326062F
:1008A0000E943C0200E010E020C00E9448026091DB
:1008B0004A4770914B477801EE0CFF1CEE0CFF1C71
:1008C00021E030E02C0F3D1FE20EF31E072E000C3E
:1008D000880B990B0E940E07F70160837183828356
:1008E00093830E943C020F5F1F4F0A301105ECF208
:1008F00000E010E060E070E0CB0113C0F801EE0F03
:10090000FF1FEE0FFF1F21E030E02C0F3D1FE20F15
:10091000F31F20813181428153810E942E060F5F97
:100920001F4F0A30110554F320E030E040E251E45B
:100930000E949A0620E030E040E450E40E949A07CA
:100940002AE939E949E95EE30E942D0620E030E01A
:100950004AEF53E40E949A0620E034E244E759E467
:100960000E949A070E949A02A896CDBFDEBFDF912F
:10097000CF911F910F91FF90EF90089584E08093A5
:1009800025060E943C0288E0809326060E943C02D5
:10099000089588E0809325060E943C0284E08093BD
:1009A00026060E943C02089584E08093820688E037
:1009B0008093810680938506E0EAFAE0878180696A
:1009C000878386818E62868387818860878385811D
:1009D000836085838481886184830895E0E5F0E005
:1009E0008081826080838091510081FFFCCF88EDFF
:1009F00084BFE0E4F0E081E08083118211820895F9
:100A0000E0E0FAE01182108281E086838FEF86A316
:100A100087A30895E0E4F9E0118210828FEF9FEF41
:100A200086A397A30895E2E0F6E031E0308322E068
:100A3000208384E0808388E0808390E1908380E25B
:100A40008083E2E2F6E0308320839083808380E439
:100A50008083A0E0B2E083E014968C931497E0E4E6
:100A6000F2E0848312968C91129712968C931297CF
:100A70008281828312968C911297806112968C9358
:100A8000129782818061828390968C919097816089
:100A900090968C93909798968C9198978160989661
:100AA0008C939897D0968C91D0978160D0968C93A8
:100AB000D097D8968C91D8978160D8968C93D897F8
:100AC00080A1816080A380A5816080A780A98160CA
:100AD00080AB80AD816080AF91968C91919787605B
:100AE00091968C93919799968C9199978760999606
:100AF0008C939997D1968C91D1978760D1968C934E
:100B0000D197D9968C91D9978760D9968C9381A1EA
:100B1000876081A381A5876081A781A9876081AB58
:100B200081AD876081AF0895E1E2F6E084E08083E3
:100B300088E0808308951F920F920FB60F921124C0
:100B40008F939F9381E090E0809302209093032005
:100B50009F918F910F900FBE0F901F9018951F922D
:100B60000F920FB60F9211240BB60F922F933F9353
:100B70004F938F939F93EF93FF9320910020309199
:100B80000120E0E0FAE081A190E00196982F88270B
:100B900040A1840F911D0196F901EE0FFF1FE95F3F
:100BA000FF4D808391832F5F3F4F20930020309330
:100BB0000120FF91EF919F918F914F913F912F9144
:100BC0000F900BBE0F900FBE0F901F9018951F92A5
:100BD0000F920FB60F9211240F900FBE0F901F901F
:100BE00018950E94EE040E9400050E940A050E94CA
:100BF00013050E94D4040E9494057894E0EAF0E082
:100C000082818160828380E880930106809305065B
:100C100080E1809381060E942901E82FF0E0E7300F
:100C2000F105C8F78827E250FF4F8F4F0C94070853
:100C30000E94C904F0CF0E94BE04EDCF0E9493022F
:100C4000EACF0E943D04E7CF0E94A103E4CF0E94B7
:100C50002204E1CF0E94B602DECF5058BB27AA275C
:100C60000E9445060C9460070E94520738F00E94CB
:100C7000590720F039F49F3F19F426F40C944F07DC
:100C80000EF4E095E7FB0C944907E92F0E947107E9
:100C900058F3BA17620773078407950720F079F4B1
:100CA000A6F50C9493070EF4E0950B2EBA2FA02D09
:100CB0000B01B90190010C01CA01A0011124FF2709
:100CC000591B99F0593F50F4503E68F11A16F04004
:100CD000A22F232F342F4427585FF3CF4695379503
:100CE0002795A795F0405395C9F77EF41F16BA0BC8
:100CF000620B730B840BBAF09150A1F0FF0FBB1F76
:100D0000661F771F881FC2F70EC0BA0F621F731FBE
:100D1000841F48F4879577956795B795F7959E3F1B
:100D200008F0B0CF9395880F08F09927EE0F9795AC
:100D3000879508950E94AE060C9460070E9459079B
:100D400058F00E94520740F029F45F3F29F00C94BC
:100D5000490751110C9494070C944F070E94710796
:100D600068F39923B1F3552391F3951B550BBB27DA
:100D7000AA2762177307840738F09F5F5F4F220F1F
:100D8000331F441FAA1FA9F335D00E2E3AF0E0E816
:100D900032D091505040E695001CCAF72BD0FE2F60
:100DA00029D0660F771F881FBB1F261737074807F4
:100DB000AB07B0E809F0BB0B802DBF01FF279358AC
:100DC0005F4F3AF09E3F510578F00C9449070C9420
:100DD00094075F3FE4F3983ED4F386957795679543
:100DE000B795F7959F5FC9F7880F911D96958795E1
:100DF00097F90895E1E0660F771F881FBB1F621700
:100E000073078407BA0720F0621B730B840BBA0BBD
:100E1000EE1F88F7E0950895E89409C097FB3EF42B
:100E200090958095709561957F4F8F4F9F4F992337
:100E3000A9F0F92F96E9BB279395F69587957795B5
:100E40006795B795F111F8CFFAF4BB0F11F460FF75
:100E50001BC06F5F7F4F8F4F9F4F16C0882311F0CD
:100E600096E911C0772321F09EE8872F762F05C0E1
:100E7000662371F096E8862F70E060E02AF09A957C
:100E8000660F771F881FDAF7880F9695879597F971
:100E9000089597F99F6780E870E060E008959FEFFC
:100EA00080EC089500240A94161617061806090601
:100EB000089500240A9412161306140605060895D0
:100EC000092E0394000C11F4882352F0BB0F40F458
:100ED000BF2B11F460FF04C06F5F7F4F8F4F9F4F98
:100EE000089557FD9058440F551F59F05F3F71F01A
:100EF0004795880F97FB991F61F09F3F79F0879581
:100F00000895121613061406551FF2CF4695F1DF09
:100F100008C0161617061806991FF1CF8695710599
:100F2000610508940895E894BB2766277727CB01CD
:100F300097F908950E94AD070C9460070E9452072C
:100F400038F00E94590720F0952311F00C944907BE
:100F50000C944F0711240C9494070E94710770F3AE
:100F6000959FC1F3950F50E0551F629FF001729F4E
:100F7000BB27F00DB11D639FAA27F00DB11DAA1F5D
:100F8000649F6627B00DA11D661F829F2227B00DAA
:100F9000A11D621F739FB00DA11D621F839FA00D35
:100FA000611D221F749F3327A00D611D231F849F85
:100FB000600D211D822F762F6A2F11249F575040DC
:100FC0009AF0F1F088234AF0EE0FFF1FBB1F661F57
:100FD000771F881F91505040A9F79E3F510580F020
:100FE0000C9449070C9494075F3FE4F3983ED4F3C4
:100FF000869577956795B795F795E7959F5FC1F7C4
:10100000FE2B880F911D9695879597F90895EE0F01
:10101000FF1F881F8BBF0790F691E02D1994F8945D
:02102000FFCF00
:00000001FF
